:020000040800F2
:1000000028050020D5000008DB060008D9060008F6
:1000100000000000000000000000000000000000E0
:10002000000000000000000000000000330700088E
:100030000000000000000000310700085D07000814
:10004000E7000008E7000008E7000008E7000008F4
:10005000E7000008E7000008E7000008E7000008E4
:1000600000000000E7000008E700000800000000B2
:10007000E7000008E7000008E700000800000000B3
:10008000E7000008E700000800000000E7000008A3
:1000900000000000E7000008E7000008E700000893
:1000A00000000000E7000008E7000008E700000883
:1000B000E700000800000000E70000080000000062
:1000C0000348854600F034F8004800475501000811
:1000D000280500200448804704480047FEE7FEE763
:1000E000FEE7FEE7FEE7FEE765070008C10000083F
:1000F00070B50446002903D000202022012310E01F
:10010000002801D00020C043C046C0460DE025466F
:10011000D5408D4205D30D469540641B1D46954044
:1001200040191546521E002DF1DC214670BD00001D
:10013000064C0125064E05E0E36807CC2B430C3C3A
:1001400098471034B442F7D3FFF7BEFFDC0900082C
:10015000FC09000880B5002007490122D306C358D6
:100160000B50001DC028F8D150070449086000F06A
:10017000D3FB002080BDC0460000002008ED00E059
:10018000F0B587B0022105913C4A13680B43136018
:1001900012680A40019200240494012503950295F7
:1001A00086000F4FB859019902A900F081F8B8599B
:1001B0002946224600F03DF907B0F0BD80B5800029
:1001C000074908580121002200F033F980BDC046DC
:1001D00080B5800002490858012100F021F980BD56
:1001E000C4000020F0B587B00027029701256904FC
:1001F000224EB0680843B0602148224A0C23E12413
:10020000640214C00097076047608760C36007619D
:10021000B2680A4002920299083800F0AFF93068DB
:1002200028433060306828400290029830682843A4
:100230003060306828400190042406940320059023
:10024000049502200390029401980520060702AF4E
:100250003046394600F02CF80694082002903046CB
:10026000394600F025F81C26304600992A4600F051
:1002700065F9304600F05EF907B0F0BD3410024079
:10028000D8000020004400400020FFF797FFFEE761
:10029000B0B5044600F0D6F80546601C02D09D4873
:1002A0000068041900F0CEF8401BA042FAD3B0BD9C
:1002B000F0B58AB005900B68002B00D1A5E00D4683
:1002C00053480121059A82420291084600D002203B
:1002D0000521090700248A420994009400D0009067
:1002E000099804460890029A07950EE03143796018
:1002F0002B681846D0400999091D0991A41C08993A
:1003000008310891521C00287FD0501E029F069091
:1003100087403B40ECD0049203936868102101436E
:100320001229059E10D11C20099908400F218140F7
:10033000069BDD08AD0075192B6A8B430799096987
:10034000814019432962079D03221146A140336869
:100350008B436868054601921540A5401D433560F2
:10036000C943122814D8012383402C4D2B420FD0AF
:10037000059EB3680B40079DED68A5401D43B56021
:10038000C306DB0F069DAB407568BD431D4375601A
:10039000059EF3680B40079DA968A1401943F160D1
:1003A000C000039E049AA3D51820089908400F2185
:1003B0008140069B019A9343164FFB181D6E8D4397
:1003C000009981402943079D1966134801686868B0
:1003D000C30301D5314300E0B143049A0E4B1960C9
:1003E0005968830301D5314300E0B1430A4B59609A
:1003F0003968C30201D5314300E0B14339607968FF
:10040000800200D572E7B14371E70AB0F0BDC04683
:100410000004005000180240801802400600060048
:1004200042690A4202D02822815070471822815026
:100430007047002A02D0182281507047282281502C
:10044000704700001C4800687047C046B0B50028DF
:1004500017D0044600680E4901600E4901606168CA
:100460004160A1688160FFF7EDFF05462068C16823
:10047000002908D0FFF7E6FF401B3028F6D90320FB
:10048000B0BD0120B0BD074901600020B0BDC0462D
:10049000CCCC0000555500000068024901600020E6
:1004A0007047C046AAAA00001A48006802490A68B4
:1004B000101808607047C0462401002080B5032052
:1004C00000F008F8002801D0012080BD00F026F8D7
:1004D000002080BDB0B505460E4801680124002902
:1004E00016D07D20C000FFF703FE014617480068C4
:1004F000FFF7FEFD00F03EF8032D09D8002807D1D4
:100500000024E0432946224600F018F8024805601E
:100510002046B0BDCC000020D00000200448016877
:1005200001220A43026001688907FCD57047C04672
:100530006010024080B500F0D1F880BD80B500F0B9
:10054000D7F880BD014800687047C046C800002049
:1005500080B5FFF7F7FF05490968890A1C220A40A0
:10056000034989581F220A40D04080BD081002402C
:10057000BC09000880B500F0DDF880BDF0B581B0A1
:1005800000282ED00446054644356878002804D15A
:1005900000202870204600F027F8242068700127EA
:1005A0007E032068C168B143C160204600F00AF9AB
:1005B000206A002802D0204600F0ECF8F8022168FA
:1005C0000A6982430A614869082290434861C86801
:1005D0003043C8600020A06420216970A97001B078
:1005E000F0BD012001B0F0BD70470000F0B585B04E
:1005F0000E4605464520285C0221202831D10120E5
:10060000002E61D01746002A5ED001221403A8688C
:10061000A04204D12869002801D1F00756D10294E4
:100620002C4644342078012808464DD003932146B7
:100630000024AC640A70212001914870FFF702FF8A
:1006400004906F862F86A868029988420CD1286989
:1006500000283446039B00D00024002805D106461C
:1006600003E0084605B0F0BD039B688E00281CD04F
:10067000184F0AE0307829684860761C039B688E22
:10068000401E6886688E00280FD080212846049A74
:1006900000F0FCF800280FD1002EEBD12088384064
:1006A00029684860A41C0026E8E740212846049AEF
:1006B00000F0ECF8002802D0032005B0F0BD0020C7
:1006C000019A10702021517005B0F0BD104605B0A0
:1006D000F0BDC046FF010000FEE770471F2101404A
:1006E00001208840014908607047C04600E100E0F1
:1006F000002805D40322034693430B4A9A1806E0C8
:100700000F220240083A03239A43084BD21880076D
:10071000C00E8901C9B28140FF238340106898430D
:10072000084310607047C04600E400E01CED00E0A4
:1007300070477047B0B5401E010E01D00120B0BD1A
:10074000054D68600024E0430321FFF7D1FFAC6052
:10075000072028602046B0BD10E000E080B5FFF71C
:10076000A3FE80BD07480168074A0A400749096897
:100770001143012253030B430360D0060449086070
:100780007047C046041002400000FFFF040FFF1F27
:1007900008ED00E010B52021415C490610D501218B
:1007A0000A0301684B699343446A23434B619442B3
:1007B00006D1032252034B699343806A1843486170
:1007C00010BD0000F0B581B0044601214A03006865
:1007D00003699343E2681A4302612269C3682A4DA0
:1007E0001D40A368134362691A432A43C260CE02C4
:1007F0004169B143E7693943416103210902426913
:100800008A43A16911434161FFF7A2FE0146192005
:1008100048436321CD436168B74219D14900FFF7CE
:1008200067FC064664273946FFF762FC00904543A3
:10083000A819C00032303946FFF75AFC07210140A1
:1008400040001F221201024000980001101816E01B
:100850008900FFF74DFC064664273946FFF748FC40
:1008600000904543A819000132303946FFF740FC9B
:100870000F210140F02202400098000110180143AE
:100880002068816001B0F0BDF3E9FFFFF0B583B0EF
:100890000C46054600680068084000210291A0420D
:1008A00002D1029803B0F0BD1E46174628464430D8
:1008B000019004E0286800682040A042F1D0701C3C
:1008C000F8D0002E04D0FFF7BDFDC01BB042F1D917
:1008D0000D2040012968CA688243CA604869012224
:1008E000904348612020019A50700021117090704F
:1008F000032003B0F0BD000080B582B001907D20E0
:10090000C300044801A90122FFF770FE019802B05C
:1009100080BDC046D800002084B0FFF7CFFD002086
:10092000FFF72EFCFFF75EFCE120840020466430D8
:100930000390032002900C48019001A8FFF786FD68
:1009400000280ED109A52046FFF7A2FC0020FFF7E2
:100950003FFC284600F022F801A8FFF79DFD002883
:10096000F1D0FFF791FCC0460030004068656C6C28
:100970006F776F726C64210D0000000002E008C800
:10098000121F08C1002AFAD170477047002001E009
:1009900001C1121F002AFBD17047000010B50446A8
:1009A00001E0FFF7A9FF2078641C03490028F8D173
:1009B0000A20FFF7A1FF10BDC000002000000000CA
:1009C0000000000000000000000000000100000026
:1009D000020000000300000004000000000A0008FC
:1009E00000000020D80000007C090008D80A000898
:1009F000D8000020500400008C090008000000000E
:100A000000000000000000000000000000000000E6
:100A100000000000000000000000000000000000D6
:100A200000000000000000000000000000000000C6
:100A300000000000000000000000000000000000B6
:100A400000000000000000000000000000000000A6
:100A50000000000000000000000000000000000096
:100A60000000000000000000000000000000000086
:100A70000000000000000000000000000000000076
:100A80000000000000000000000000000000000066
:100A90000000000000000000000000000000000056
:100AA0000000000000000000000000000000000046
:100AB0000000000000000000000000000000000036
:100AC000000000000004005000127A000100000045
:080AD00004000000000000001A
:04000005080000C12E
:00000001FF
